{
  "contractName": "Faucet",
  "abi": [
    {
      "constant": false,
      "inputs": [],
      "name": "destroy",
      "outputs": [],
      "payable": false,
      "stateMutability": "nonpayable",
      "type": "function"
    },
    {
      "payable": true,
      "stateMutability": "payable",
      "type": "fallback"
    },
    {
      "anonymous": false,
      "inputs": [
        {
          "indexed": true,
          "name": "to",
          "type": "address"
        },
        {
          "indexed": false,
          "name": "amount",
          "type": "uint256"
        }
      ],
      "name": "Withdrawal",
      "type": "event"
    },
    {
      "anonymous": false,
      "inputs": [
        {
          "indexed": true,
          "name": "from",
          "type": "address"
        },
        {
          "indexed": false,
          "name": "amount",
          "type": "uint256"
        }
      ],
      "name": "Deposit",
      "type": "event"
    },
    {
      "constant": false,
      "inputs": [
        {
          "name": "withdraw_amount",
          "type": "uint256"
        }
      ],
      "name": "withdraw",
      "outputs": [],
      "payable": false,
      "stateMutability": "nonpayable",
      "type": "function"
    }
  ],
  "bytecode": "0x6080604052336000806101000a81548173ffffffffffffffffffffffffffffffffffffffff021916908373ffffffffffffffffffffffffffffffffffffffff160217905550610250806100536000396000f30060806040526004361061004c576000357c0100000000000000000000000000000000000000000000000000000000900463ffffffff1680632e1a7d4d1461009c57806383197ef0146100c9575b3373ffffffffffffffffffffffffffffffffffffffff167fe1fffcc4923d04b559f4d29a8bfc6cda04eb5b0d3c460751c2402c5c5cc9109c346040518082815260200191505060405180910390a2005b3480156100a857600080fd5b506100c7600480360381019080803590602001909291905050506100e0565b005b3480156100d557600080fd5b506100de61018f565b005b67016345785d8a000081111515156100f757600080fd5b3373ffffffffffffffffffffffffffffffffffffffff166108fc829081150290604051600060405180830381858888f1935050505015801561013d573d6000803e3d6000fd5b503373ffffffffffffffffffffffffffffffffffffffff167f7fcf532c15f0a6db0bd6d0e038bea71d30d808c7d98cb3bf7268a95bf5081b65826040518082815260200191505060405180910390a250565b6000809054906101000a900473ffffffffffffffffffffffffffffffffffffffff1673ffffffffffffffffffffffffffffffffffffffff163373ffffffffffffffffffffffffffffffffffffffff161415156101ea57600080fd5b6000809054906101000a900473ffffffffffffffffffffffffffffffffffffffff1673ffffffffffffffffffffffffffffffffffffffff16ff00a165627a7a7230582063f60aa6f9cd80ecc6b4fa39f9733118a3d3e338d1211e715ecda976455ea4fb0029",
  "source": "// Version of Solidity compiler this program was written for\npragma solidity ^0.4.19;\n\ncontract owned {\n    address owner;\n\n    // Contract constructor: set owner\n    constructor() public{\n        owner = msg.sender;\n    }\n\n    // Access control modifier\n    modifier onlyOwner {\n        require(msg.sender == owner);\n        _;\n    }\n}\n\ncontract mortal is owned {\n    // Contract destructor\n    function destroy() public onlyOwner {\n        selfdestruct(owner);\n    }\n}\n\ncontract Faucet is mortal {\n    \n    event Withdrawal(address indexed to, uint amount);\n    event Deposit(address indexed from, uint amount);\n\n    // Give out ether to anyone who asks\n    function withdraw(uint withdraw_amount) public {\n        // Limit withdrawal amount\n        require(withdraw_amount <= 0.1 ether);\n        // Send the amount to the address that requested it\n        msg.sender.transfer(withdraw_amount);\n        emit Withdrawal(msg.sender, withdraw_amount);\n    }\n    // Accept any incoming amount\n    function () public payable {\n        emit Deposit(msg.sender, msg.value);\n    }\n}",
  "sourcePath": "/home/parsh/Dev PlayGround/Faucet/contracts/Faucet.sol",
  "compiler": {
    "name": "solc",
    "version": "0.4.24+commit.e67f0147.Emscripten.clang"
  },
  "schemaVersion": "2.0.1",
  "updatedAt": "2018-08-01T06:47:14.443Z"
}