{
  "contractName": "mortal",
  "abi": [
    {
      "constant": false,
      "inputs": [],
      "name": "destroy",
      "outputs": [],
      "payable": false,
      "stateMutability": "nonpayable",
      "type": "function"
    }
  ],
  "bytecode": "0x6080604052336000806101000a81548173ffffffffffffffffffffffffffffffffffffffff021916908373ffffffffffffffffffffffffffffffffffffffff160217905550610118806100536000396000f300608060405260043610603f576000357c0100000000000000000000000000000000000000000000000000000000900463ffffffff16806383197ef0146044575b600080fd5b348015604f57600080fd5b5060566058565b005b6000809054906101000a900473ffffffffffffffffffffffffffffffffffffffff1673ffffffffffffffffffffffffffffffffffffffff163373ffffffffffffffffffffffffffffffffffffffff1614151560b257600080fd5b6000809054906101000a900473ffffffffffffffffffffffffffffffffffffffff1673ffffffffffffffffffffffffffffffffffffffff16ff00a165627a7a7230582011c5693a4423d21aa302083ac04f7510cee2fb98df5030f1747e25c0feef8f5f0029",
  "source": "// Version of Solidity compiler this program was written for\npragma solidity ^0.4.19;\n\ncontract owned {\n    address owner;\n\n    // Contract constructor: set owner\n    constructor() public{\n        owner = msg.sender;\n    }\n\n    // Access control modifier\n    modifier onlyOwner {\n        require(msg.sender == owner);\n        _;\n    }\n}\n\ncontract mortal is owned {\n    // Contract destructor\n    function destroy() public onlyOwner {\n        selfdestruct(owner);\n    }\n}\n\ncontract Faucet is mortal {\n    \n    event Withdrawal(address indexed to, uint amount);\n    event Deposit(address indexed from, uint amount);\n\n    // Give out ether to anyone who asks\n    function withdraw(uint withdraw_amount) public {\n        // Limit withdrawal amount\n        require(withdraw_amount <= 0.1 ether);\n        // Send the amount to the address that requested it\n        msg.sender.transfer(withdraw_amount);\n        emit Withdrawal(msg.sender, withdraw_amount);\n    }\n    // Accept any incoming amount\n    function () public payable {\n        emit Deposit(msg.sender, msg.value);\n    }\n}",
  "sourcePath": "/home/parsh/Dev PlayGround/Faucet/contracts/Faucet.sol",
  "compiler": {
    "name": "solc",
    "version": "0.4.24+commit.e67f0147.Emscripten.clang"
  },
  "schemaVersion": "2.0.1",
  "updatedAt": "2018-08-01T06:47:10.891Z"
}